:020000040800F2
:1000000000000120911A0008091900080B190008C6
:100010000D1900080F190008111900080000000050
:10002000000000000000000000000000D1420008B5
:10003000131900080000000071430008D5430008B0
:10004000E11A0008E11A0008E11A0008E11A0008A4
:10005000E11A0008E11A0008E11A0008E11A000894
:10006000E11A0008E11A0008E11A0008E11A000884
:10007000E11A0008E11A0008E11A0008E11A000874
:10008000E11A0008E11A0008E11A0008E11A000864
:10009000E11A0008E11A0008E11A0008E11A000854
:1000A000E11A000815190008E11A0008E11A000811
:1000B000E11A0008E11A0008E11A0008E11A000834
:1000C000E11A0008E11A0008E11A0008E11A000824
:1000D000E11A0008E11A0008E11A0008E11A000814
:1000E000E11A0008E11A0008E11A0008E11A000804
:1000F000E11A0008E11A0008E11A0008E11A0008F4
:10010000E11A00080000000000000000E11A0008E9
:10011000E11A0008E11A0008E11A0008E11A0008D3
:10012000E11A0008E11A0008E11A0008E11A0008C3
:10013000E11A0008E11A00080000000000000000B9
:10014000E11A0008E11A0008E11A000800000000A6
:10015000000000000000000000000000000000009F
:10016000E11A0008E11A0008E11A0008E11A000883
:10017000E11A0008E11A0008E11A0008E11A000873
:10018000E11A0008E11A0008000000000000000069
:04019000E11A000868
:1001C00010B5054C237833B9044B13B10448AFF391
:1001D00000800123237010BDC00900200000000032
:1001E00098C3000808B5034B1BB103490348AFF39C
:1001F000008008BD00000000C409002098C300086A
:1002000081F0004102E000BF83F0004330B54FEAC7
:1002100041044FEA430594EA050F08BF90EA020F34
:100220001FBF54EA000C55EA020C7FEA645C7FEAC7
:10023000655C00F0E2804FEA5454D4EB5555B8BFEA
:100240006D420CDD2C4480EA020281EA030382EA5B
:10025000000083EA010180EA020281EA0303362DED
:1002600088BF30BD11F0004F4FEA01314FF4801CC0
:100270004CEA113102D0404261EB410113F0004FD2
:100280004FEA03334CEA133302D0524263EB430389
:1002900094EA050F00F0A780A4F10104D5F1200E27
:1002A0000DDB02FA0EFC22FA05F2801841F1000182
:1002B00003FA0EF2801843FA05F359410EE0A5F156
:1002C00020050EF1200E012A03FA0EFC28BF4CF087
:1002D000020C43FA05F3C01851EBE37101F000453D
:1002E00007D54FF0000EDCF1000C7EEB00006EEB4A
:1002F0000101B1F5801F1BD3B1F5001F0CD34908D4
:100300005FEA30004FEA3C0C04F101044FEA44522A
:1003100012F5800F80F09A80BCF1004F08BF5FEAB1
:10032000500C50F1000041EB045141EA050130BD91
:100330005FEA4C0C404141EB0101013C28BFB1F5A3
:10034000801FE9D291F0000F04BF01460020B1FAEE
:1003500081F308BF2033A3F10B03B3F120020CDAC1
:100360000C3208DD02F1140CC2F10C0201FA0CF09F
:1003700021FA02F10CE002F11402D8BFC2F1200C04
:1003800001FA02F120FA0CFCDCBF41EA0C019040BA
:10039000E41AA2BF01EB0451294330BD6FEA040403
:1003A0001F3C1CDA0C340EDC04F11404C4F12002EE
:1003B00020FA04F001FA02F340EA030021FA04F300
:1003C00045EA030130BDC4F10C04C4F1200220FA57
:1003D00002F001FA04F340EA0300294630BD21FA95
:1003E00004F0294630BD94F0000F83F4801306BF5B
:1003F00081F480110134013D4EE77FEA645C18BF4F
:100400007FEA655C29D094EA050F08BF90EA020FE5
:1004100005D054EA000C04BF1946104630BD91EADD
:10042000030F1EBF0021002030BD5FEA545C05D1E0
:100430004000494128BF41F0004130BD14F580041F
:100440003CBF01F5801130BD01F0004545F0FE4193
:1004500041F470014FF0000030BD7FEA645C1ABFC8
:10046000194610467FEA655C1CBF0B46024650EAFF
:10047000013406BF52EA033591EA030F41F400212B
:1004800030BD00BF90F0000F04BF0021704730B5B1
:100490004FF4806404F132044FF000054FF0000186
:1004A00050E700BF90F0000F04BF0021704730B547
:1004B0004FF4806404F1320410F0004548BF40421C
:1004C0004FF000013EE700BF42004FEAE2014FEA71
:1004D00031014FEA02701FBF12F07F4393F07F4F4C
:1004E00081F06051704732F07F4208BF704793F04F
:1004F0007F4F04BF41F40021704730B54FF4607462
:1005000001F0004521F000411CE700BF50EA010264
:1005100008BF704730B54FF000050AE050EA01020D
:1005200008BF704730B511F0004502D5404261EB7D
:1005300041014FF4806404F132045FEA915C3FF4BE
:10054000D8AE4FF003025FEADC0C18BF03325FEA5B
:10055000DC0C18BF033202EBDC02C2F1200300FA0C
:1005600003FC20FA02F001FA03FE40EA0E0021FA31
:1005700002F11444BDE600BF4FEA4102B2F1E0438C
:1005800024BFB3F5001CDCF1FE5C0DD901F0004C7A
:100590004FEAC0024CEA5070B2F1004F40EB8300CA
:1005A00008BF20F00100704711F0804F21D113F1F6
:1005B0003872BCBF01F00040704741F480114FEA2F
:1005C0005252C2F11802C2F1200C10FA0CF320FAB8
:1005D00002F018BF40F001004FEAC1234FEAD323D5
:1005E00003FA0CFC40EA0C0023FA02F34FEA43033F
:1005F000CCE77FEA625307D150EA01331EBF4FF0C8
:10060000FE4040F44000704701F0004040F0FE40E2
:1006100040F40000704700BF844641EA000313F035
:1006200003036DD1403A41D351F8043B40F8043BF9
:1006300051F8043B40F8043B51F8043B40F8043BBC
:1006400051F8043B40F8043B51F8043B40F8043BAC
:1006500051F8043B40F8043B51F8043B40F8043B9C
:1006600051F8043B40F8043B51F8043B40F8043B8C
:1006700051F8043B40F8043B51F8043B40F8043B7C
:1006800051F8043B40F8043B51F8043B40F8043B6C
:1006900051F8043B40F8043B51F8043B40F8043B5C
:1006A00051F8043B40F8043B403ABDD2303211D3FC
:1006B00051F8043B40F8043B51F8043B40F8043B3C
:1006C00051F8043B40F8043B51F8043B40F8043B2C
:1006D000103AEDD20C3205D351F8043B40F8043BFC
:1006E000043AF9D2043208D0D2071CBF11F8013BFA
:1006F00000F8013B01D30B8803806046704700BFC0
:10070000082A13D38B078DD010F003038AD0C3F1CE
:100710000403D21ADB071CBF11F8013B00F8013BB0
:1007200080D331F8023B20F8023B7BE7043AD9D36F
:10073000013A11F8013B00F8013BF9D20B78037044
:100740004B7843708B7883706046704700000000E0
:100750000000000000000000000000000000000099
:100760000000000000000000000000000000000089
:100770000000000000000000000000000000000079
:1007800090F800F06DE9024520F007016FF0000CD1
:1007900010F0070491F820F040F049804FF0000479
:1007A0006FF00700D1E9002391F840F000F1080054
:1007B00082FA4CF2A4FA8CF283FA4CF3A2FA8CF38C
:1007C0004BBBD1E9022382FA4CF200F10800A4FAF3
:1007D0008CF283FA4CF3A2FA8CF3E3B9D1E9042347
:1007E00082FA4CF200F10800A4FA8CF283FA4CF37E
:1007F000A2FA8CF37BB9D1E9062301F1200182FA38
:100800004CF200F10800A4FA8CF283FA4CF3A2FA3D
:100810008CF3002BC6D0002A04BF04301A4612BA4B
:10082000B2FA82F2FDE8024500EBD2007047D1E94E
:10083000002304F00305C4F100004FEAC50514F0DD
:10084000040F91F840F00CFA05F562EA05021CBFAE
:1008500063EA050362464FF00004A9E700000000C8
:1008600001F0FF01102A2BDB10F0070F08D010F861
:10087000013B013A8B422DD010F0070F42B3F6D165
:10088000F0B441EA012141EA014122F007047FF07E
:1008900000070023F0E80256083C85EA010586EAD5
:1008A000010685FA47F5A3FA87F586FA47F6A5FA11
:1008B00087F68EB9EED1F0BC01F0FF0102F007021D
:1008C00032B110F8013B013A83EA010313B1F8D1C8
:1008D0000020704701387047002D06BF35460338A9
:1008E000073815F0010F07D1013015F4807F02BFE2
:1008F000013015F4C03F0130F0BC0138704700BF33
:1009000070B54FF0FF0C4CF4E06C1CEA11541DBFA5
:100910001CEA135594EA0C0F95EA0C0F00F0DEF870
:100920002C4481EA030621EA4C5123EA4C5350EA55
:10093000013518BF52EA033541F4801143F48013A6
:1009400038D0A0FB02CE4FF00005E1FB02E506F037
:100950000042E0FB03E54FF00006E1FB03569CF08C
:10096000000F18BF4EF0010EA4F1FF04B6F5007F92
:1009700064F5407404D25FEA4E0E6D4146EB060604
:1009800042EAC62141EA55514FEAC52040EA5E508D
:100990004FEACE2EB4F1FD0C88BFBCF5E06F1ED837
:1009A000BEF1004F08BF5FEA500E50F1000041EB6E
:1009B000045170BD06F0004646EA010140EA02001B
:1009C00081EA0301B4EB5C04C2BFD4EB0C0541EA3D
:1009D000045170BD41F480114FF0000E013C00F352
:1009E000AB8014F1360FDEBF002001F0004170BD76
:1009F000C4F10004203C35DA0C341BDC04F114048F
:100A0000C4F1200500FA05F320FA04F001FA05F21A
:100A100040EA020001F0004221F0004110EBD370E7
:100A200021FA04F642EB06015EEA430E08BF20EA13
:100A3000D37070BDC4F10C04C4F1200500FA04F3B6
:100A400020FA05F001FA04F240EA020001F0004148
:100A500010EBD37041F100015EEA430E08BF20EABB
:100A6000D37070BDC4F1200500FA05F24EEA020E03
:100A700020FA04F301FA05F243EA020321FA04F032
:100A800001F0004121FA04F220EA020000EBD370E9
:100A90005EEA430E08BF20EAD37070BD94F0000FE9
:100AA0000FD101F00046400041EB010111F4801F1D
:100AB00008BF013CF7D041EA060195F0000F18BFCE
:100AC000704703F00046520043EB030313F4801F0A
:100AD00008BF013DF7D043EA0603704794EA0C0FC4
:100AE0000CEA135518BF95EA0C0F0CD050EA4106DA
:100AF00018BF52EA4306D1D181EA030101F0004157
:100B00004FF0000070BD50EA410606BF104619467E
:100B100052EA430619D094EA0C0F02D150EA01368A
:100B200013D195EA0C0F05D152EA03361CBF1046CB
:100B300019460AD181EA030101F0004141F0FE416A
:100B400041F470014FF0000070BD41F0FE4141F4EE
:100B5000780170BD70B54FF0FF0C4CF4E06C1CEAEE
:100B600011541DBF1CEA135594EA0C0F95EA0C0FA3
:100B700000F0A7F8A4EB050481EA030E52EA03355E
:100B80004FEA013100F088804FEA03334FF080557F
:100B900045EA131343EA12634FEA022245EA1115AC
:100BA00045EA10654FEA00260EF000419D4208BF5D
:100BB000964244F1FD0404F5407402D25B084FEA0A
:100BC0003202B61A65EB03055B084FEA32024FF4B6
:100BD00080104FF4002CB6EB020E75EB030E22BF13
:100BE000B61A754640EA0C005B084FEA3202B6EBD3
:100BF000020E75EB030E22BFB61A754640EA5C0082
:100C00005B084FEA3202B6EB020E75EB030E22BF11
:100C1000B61A754640EA9C005B084FEA3202B6EB12
:100C2000020E75EB030E22BFB61A754640EADC00D1
:100C300055EA060E18D04FEA051545EA16754FEA33
:100C400006164FEAC30343EA52734FEAC2025FEA51
:100C50001C1CC0D111F4801F0BD141EA00014FF0E0
:100C600000004FF0004CB6E711F4801F04BF0143B1
:100C70000020B4F1FD0C88BFBCF5E06F3FF6AFAECD
:100C8000B5EB030C04BFB6EB020C5FEA500C50F15D
:100C9000000041EB045170BD0EF0004E4EEA1131E0
:100CA00014EB5C04C2BFD4EB0C0541EA045170BDE7
:100CB00041F480114FF0000E013C90E645EA060E2B
:100CC0008DE60CEA135594EA0C0F08BF95EA0C0F59
:100CD0003FF43BAF94EA0C0F0AD150EA01347FF4A1
:100CE00034AF95EA0C0F7FF425AF104619462CE778
:100CF00095EA0C0F06D152EA03353FF4FDAE1046DB
:100D0000194622E750EA410618BF52EA43067FF42B
:100D1000C5AE50EA41047FF40DAF52EA43057FF4BB
:100D2000EBAE12E74FF0FF3C06E000BF4FF0010CC6
:100D300002E000BF4FF0010C4DF804CD4FEA410C2A
:100D40007FEA6C5C4FEA430C18BF7FEA6C5C1BD0F7
:100D500001B050EA410C0CBF52EA430C91EA030F78
:100D600002BF90EA020F0020704710F1000F91EAD5
:100D7000030F58BF994208BF90422CBFD8176FEAA3
:100D8000E37040F0010070474FEA410C7FEA6C5C71
:100D900002D150EA013C07D14FEA430C7FEA6C5C78
:100DA000D6D152EA033CD3D05DF8040B704700BFA4
:100DB0008446104662468C461946634600E000BFF2
:100DC00001B5FFF7B7FF002848BF10F1000F01BDC4
:100DD0004DF808EDFFF7F4FF0CBF012000205DF88F
:100DE00008FB00BF4DF808EDFFF7EAFF34BF012014
:100DF00000205DF808FB00BF4DF808EDFFF7E0FFAD
:100E000094BF012000205DF808FB00BF4DF808EDFD
:100E1000FFF7CEFF94BF012000205DF808FB00BF64
:100E20004DF808EDFFF7C4FF34BF012000205DF846
:100E300008FB00BF4FEA410C7FEA6C5C02D150EA2C
:100E4000013C0AD14FEA430C7FEA6C5C02D152EAC2
:100E5000033C02D14FF0000070474FF00100704793
:100E60004FEA410212F5001215D211D56FF47873D2
:100E7000B3EB625212D94FEAC12343F0004343EA75
:100E8000505311F0004F23FA02F018BF4042704750
:100E90004FF00000704750EA013005D111F00040DA
:100EA00008BF6FF0004070474FF00000704700BF70
:100EB00053B94AB9002908BF00281CBF4FF0FF31C1
:100EC0004FF0FF3000F074B9ADF1080C6DE904CEBD
:100ED00000F006F8DDF804E0DDE9022304B0704715
:100EE0002DE9F047089D04468E46002B4DD18A42DD
:100EF000944669D9B2FA82F252B101FA02F3C2F110
:100F0000200120FA01F10CFA02FC41EA030E9440A0
:100F10004FEA1C48210CBEFBF8F61FFA8CF708FBC1
:100F200016E341EA034306FB07F199420AD91CEB99
:100F3000030306F1FF3080F01F81994240F21C81CB
:100F4000023E63445B1AA4B2B3FBF8F008FB103313
:100F500044EA034400FB07F7A7420AD91CEB040448
:100F600000F1FF3380F00A81A74240F20781644418
:100F7000023840EA0640E41B00261DB1D44000239D
:100F8000C5E900433146BDE8F0878B4209D9002D01
:100F900000F0EF800026C5E9000130463146BDE88B
:100FA000F087B3FA83F6002E4AD18B4202D38242F5
:100FB00000F2F980841A61EB030301209E46002DA4
:100FC000E0D0C5E9004EDDE702B9FFDEB2FA82F2F9
:100FD000002A40F09280A1EB0C014FEA1C471FFA57
:100FE0008CFE0126200CB1FBF7F307FB131140EA3E
:100FF00001410EFB03F0884208D91CEB010103F10B
:10100000FF3802D2884200F2CB804346091AA4B2CC
:10101000B1FBF7F007FB101144EA01440EFB00FEA0
:10102000A64508D91CEB040400F1FF3102D2A64505
:1010300000F2BB800846A4EB0E0440EA03409CE7A4
:10104000C6F12007B34022FA07FC4CEA030C20FA51
:1010500007F401FA06F31C43F9404FEA1C4900FA71
:1010600006F3B1FBF9F8200C1FFA8CFE09FB1811EE
:1010700040EA014108FB0EF0884202FA06F20BD961
:101080001CEB010108F1FF3A80F08880884240F2B1
:101090008580A8F102086144091AA4B2B1FBF9F0F5
:1010A00009FB101144EA014100FB0EFE8E4508D9F0
:1010B0001CEB010100F1FF346CD28E456AD9023875
:1010C000614440EA0840A0FB0294A1EB0E01A1425A
:1010D000C846A64656D353D05DB1B3EB080261EBC8
:1010E0000E0101FA07F722FA06F3F1401F43C5E9A2
:1010F000007100263146BDE8F087C2F12003D840D8
:101100000CFA02FC21FA03F3914001434FEA1C4719
:101110001FFA8CFEB3FBF7F007FB10360B0C43EA0B
:10112000064300FB0EF69E4204FA02F408D91CEBBB
:10113000030300F1FF382FD29E422DD902386344B9
:101140009B1B89B2B3FBF7F607FB163341EA034159
:1011500006FB0EF38B4208D91CEB010106F1FF38A8
:1011600016D28B4214D9023E6144C91A46EA00469F
:1011700038E72E46284605E70646E3E61846F8E631
:101180004B45A9D2B9EB020864EB0C0E0138A3E77A
:101190004646EAE7204694E74046D1E7D0467BE75B
:1011A000023B614432E7304609E76444023842E7D3
:1011B000704700BF0000000010B5044690F95400CD
:1011C000FFF770F90022184BFFF79AFB14A3D3E93D
:1011D0000023FFF795FBFFF7CFF9A06594F95500C1
:1011E000FFF760F90022104BFFF78AFB0CA3D3E94D
:1011F0000023FFF785FBFFF7BFF9E06594F9560080
:10120000FFF750F90022084BFFF77AFB04A3D3E95C
:101210000023FFF775FBFFF7AFF92066002010BD34
:101220001F85EB51B89E23400000B03F2DE9F043ED
:1012300085B00C46174B1A889B780A808B70164B2A
:10124000D3F85C80D3F86090986DFFF73DF90646BF
:101250000F46124D4846FFF737F9CDE902014046E7
:10126000FFF732F9CDE9000132463B460C492846EA
:1012700005F02CFB2946204605F048FB2046FFF7E9
:101280007FFA2218074B19889B782152937005B07A
:10129000BDE8F083B0C30008800A0020DC0900200C
:1012A000B4C30008C8C3000800B585B04FF0FF33D1
:1012B00002930123019300920A461421024800F090
:1012C00075FF05B05DF804FB2C0A002030B583B033
:1012D000044654222049FFF79FF9002184F8541056
:1012E00084F8551084F856100DF107022046FFF7D8
:1012F000DBFF051E18BF01259DF80730DD2B02D04E
:10130000FF2003B030BD0DF1070202212046FFF798
:10131000CBFF002818BF01359DF80730CBB9032358
:101320008DF807300DF1070220212046FFF7BCFFA2
:10133000002818BF013501238DF807300DF1070291
:1013400022212046FFF7B0FF00280CBF2846681C6A
:10135000D7E7FF20D5E700BF2C0A002030B583B0C7
:1013600004460DF107020421FFF79EFF051E18BF7A
:1013700001259DF907309B1084F854300DF10702C8
:1013800006212046FFF790FF002818BF01359DF980
:1013900007309B1084F855300DF1070208212046D4
:1013A000FFF782FF9DF907309B1084F85630002824
:1013B0000CBF2846681C03B030BD70477047000062
:1013C00008B50A4C4FF0FF31206802F037FD08489D
:1013D000FFF7C4FF206802F073FD0121054B186878
:1013E00002F042FC642002F08BFBEAE7200A0020B6
:1013F000800A0020240A002008B50A2002F080FBA1
:10140000FBE7000008B54FF0FF33002201210E4832
:10141000006802F067FC0D4C4FF0FF31206802F0CD
:101420000DFD0B4D4FF0FF31286802F007FD094814
:10143000FFF7C2FE286802F043FD206802F040FD7D
:101440000A2002F05DFBDEE7240A0020200A0020CB
:10145000180A0020800A002000B58FB0104C4FF011
:10146000FF31206802F0EAFC01A90E48FFF7DEFE1A
:1014700020214FF0904000F0A6FC01A8FFF780F972
:101480004FF0FF3382B201A9074802F079F92068D2
:1014900002F016FD4FF47A7002F032FBDEE700BF77
:1014A000180A0020800A0020340B002008B52548C7
:1014B00002F066FC244B1860244802F061FC244BC7
:1014C0001860244802F05CFC234B1860234B002278
:1014D0000121234802F036FB224B1860224B0022E8
:1014E0000121224802F02EFB214B1860214A0021E5
:1014F000214802F08DFA214B1860214A0021214831
:1015000002F086FA204B1860204A0021204802F0A1
:101510007FFA204B1860204A0021204802F078FA18
:101520001F4B18601F4802F06BFB1F4B18601F48D1
:1015300002F066FB1E4B18601E4802F061FB1E4B5A
:10154000186008BD40C50008180A002050C50008F2
:101550001C0A002060C50008200A0020C8C400083A
:10156000BB130008040A0020FCC40008BD130008D7
:101570000C0A0020D8C40008C1130008080A002083
:1015800094C4000805140008FC0900200CC50008DC
:1015900059140008100A002080C50008F91300083B
:1015A000280A002070C50008240A002030C5000861
:1015B000140A0020B8C40008000A002070B58AB0E0
:1015C000002405940694079408940994284B5A69BA
:1015D00042F400225A615A6902F400220192019AEF
:1015E0005A6942F480025A615A6902F480020292F6
:1015F000029A5A6942F400325A615A6902F400327E
:101600000392039A5A6942F480225A615B6903F497
:1016100080230493049B224620214FF0904000F049
:10162000CDFB144D22461021284600F0C7FB4FF495
:10163000005305934FF404130693079405A90E482D
:1016400000F0CCFA2023059301260696079408940F
:1016500005A94FF0904000F0C1FA102305930696BB
:101660000794089405A9284600F0B8FA0AB070BD9E
:1016700000100240000400480008004808B5124865
:10168000124B0360124B4360002383600122C2604F
:10169000036143618361C361036200F028FD50B9B7
:1016A0000021094800F05AFE40B90021064800F028
:1016B00083FE30B908BD00F0BBF8F1E700F0B8F8E0
:1016C000F3E700F0B5F8F5E72C0A002000540040DD
:1016D0000E0900202DE9F04188B000230393049304
:1016E00005930693079302681F4B9A4202D008B0F5
:1016F000BDE8F0811D4C636943F4003363616369A5
:1017000003F400330093009B636943F48023636117
:10171000636903F480230193019B4FF40043039317
:101720004FF01208CDF81080012705970326069682
:101730000425079503A94FF0904000F04FFA80234D
:101740000393CDF8108005970696079503A90848DE
:1017500000F044FAE36943F40013E361E36903F43E
:1017600000130293029BC2E70054004000100240A5
:101770000004004830B5A7B0282200211CA804F0BE
:10178000C9FF00241794189419941A941B94582292
:10179000214601A804F0BEFF02251C9501231F93DA
:1017A0001023209322954FF4004323934FF4E0132A
:1017B00024931CA800F02CFE0F231793189519945E
:1017C0004FF480631A931B94294617A801F07CF903
:1017D000222301930494089401A801F099FA27B0F8
:1017E00030BD000008B500F07DF9FFF7C3FFFFF73B
:1017F000E5FE00F0FFF8FFF741FF05490548FFF758
:1018000065FD02F0BDF8FFF751FE02F0DBF8FEE7E0
:101810002C0A0020800A002008B50268034B9A4277
:1018200000D008BD00F070F9FBE700BF002C0140BC
:1018300072B6FEE700B583B00D4B9A6942F0010223
:101840009A619A6902F001020092009ADA6942F004
:101850008052DA61DB6903F080530193019B00221F
:101860000F216FF0010000F073F903B05DF804FB85
:101870000010024030B589B004461E4B9A6942F40C
:1018800000629A619B6903F400630193019B02A9C2
:1018900003A801F01FFA01F007FA03461648A0FB5F
:1018A00003239B0C013B1548154A026040F2E732C6
:1018B000C2604360002303618360836101F02AFDFD
:1018C000054610B1284609B030BD0C4801F0A2FB16
:1018D00005460028F6D1192000F072F90F2C01D925
:1018E0000125EFE700222146192000F031F9054BD0
:1018F0001C60E7E70010024083DE1B43E40A00207F
:10190000002C014008000020FEE7FEE7FEE7FEE7AE
:10191000FEE7704708B5024801F0C6FB08BD00BFEE
:10192000E40A00200120704708B504F009FC1623E2
:1019300003604FF0FF3008BD08B54FF0FF31FFF7EF
:10194000F3FFFEE770B50C461646002506E0AFF340
:101950000080214601F8010B01350C46B542F6DB4B
:10196000304670BD70B50C461646002504E014F8EC
:10197000010BAFF300800135B542F8DB304670BD96
:101980004FF0FF3070474FF400534B60002070471A
:10199000012070470020704710B503460C4A0D49DE
:1019A0000D48006840B10C4800680344521A934245
:1019B00006D8094A136010BD0748084C0460F2E7D6
:1019C00004F0BEFB0C2303604FF0FF30F3E700BFD1
:1019D0000000012000040000300B002098210020AE
:1019E000034AD2F8883043F47003C2F88830704755
:1019F00000ED00E008B50B480B4B03604FF4E133FA
:101A0000436000238360C36003610C2242618361F1
:101A1000C3610362436201F07AFF00B908BDFFF7BA
:101A200007FFFBE7340B00200044004000B589B0FD
:101A30000023039304930593069307930268134BC3
:101A40009A4202D009B05DF804FB03F5E633DA6987
:101A500042F40032DA61DA6902F400320192019A4A
:101A60005A6942F400325A615B6903F4003302930D
:101A7000029B0C230393022304930723079303A9D8
:101A80004FF0904000F0AAF8DCE700BF00440040AF
:101A9000DFF834D0FFF7A4FF0C480D490D4A0023AE
:101AA00002E0D458C4500433C4188C42F9D30A4A13
:101AB0000A4C002301E013600432A242FBD304F07D
:101AC00045FBFFF78FFEFEE700000120000000202D
:101AD000C009002004CA0008C00900209421002089
:101AE000FEE7000008B5074A136843F010031360CF
:101AF000032000F01BF80F20FFF7BCFEFFF79AFE53
:101B0000002008BD00200240034A1168034B1B78E7
:101B10000B441360704700BFBC0B00200400002082
:101B2000014B1868704700BFBC0B0020074AD36800
:101B300023F4E0631B041B0C000200F4E060034389
:101B400043F0BF6343F40033D360704700ED00E01F
:101B500000B5194BDB68C3F30223C3F1070CBCF1DA
:101B6000040F28BF4FF0040C03F1040EBEF1060F62
:101B700018D9033B4FF0FF3E0EFA0CFC21EA0C0192
:101B800099400EFA03F322EA0303194300280BDB02
:101B90000901C9B200F1604000F5614080F800130E
:101BA0005DF804FB0023E5E700F00F000901C9B26E
:101BB000024B1954F4E700BF00ED00E014ED00E023
:101BC000002807DB00F01F02400901239340024A6E
:101BD00042F82030704700BF00E100E0F0B583B06C
:101BE000002362E085685E000324B44025EA040512
:101BF000CC68B4402C438460446824EA0C0C4C68E4
:101C0000C4F300149C4044EA0C0444605EE0DD0828
:101C1000083550F8256003F007044FEA840C0F24C0
:101C200004FA0CF426EA040E0C6904FA0CF444EAF3
:101C30000E0440F8254060E0062400E0002404FA89
:101C40000EF42C430CF1020C584D45F82C40584C26
:101C5000A568D44325EA02064F6817F4801F01D017
:101C600042EA0506524DAE60ED6804EA05064F688B
:101C700017F4001F01D042EA05064D4DEE606D6875
:101C800004EA05064F6817F4003F01D042EA050652
:101C9000474D6E602D682C404E6816F4803F01D091
:101CA00042EA0504424A146001330A6832FA03F436
:101CB0007AD04FF0010C0CFA03FC1CEA0202F3D0BC
:101CC0004C6804F00304013C012C8BD94C6804F0EF
:101CD0000304032C0CD0C4685D004FF0030C0CFA15
:101CE00005FC24EA0C0C8C68AC4044EA0C04C4608B
:101CF0004C6804F00304022C89D004684FEA430EB8
:101D00004FF0030C0CFA0EFC24EA0C0C4C6804F0A7
:101D1000030404FA0EF444EA0C0404604C6814F45E
:101D2000403FC1D0234CA56945F00105A561A469D8
:101D300004F001040194019C4FEA930C0CF102059C
:101D40001A4C54F8255003F003044FEA840E0F2474
:101D500004FA0EF425EA0405B0F1904F3FF46EAF9B
:101D6000154CA04216D004F58064A04214D004F5AE
:101D70008064A04212D004F58064A04210D004F523
:101D80008064A0420ED004F58064A0423FF454AFBA
:101D9000072454E7012452E7022450E703244EE7C6
:101DA00004244CE705244AE703B0F0BD00000140DD
:101DB0000004014000100240000400480AB18161A3
:101DC000704781627047436901EA030221EA030117
:101DD00041EA02418161704703689A6912F0020F7B
:101DE00001D000229A6203689A6912F0010F03D1B0
:101DF0009A6942F001029A61704710B4019CC1F3E4
:101E0000090141EA02411943214321F000410268DE
:101E10005368640D04F4806444F07F7444F45834CF
:101E200044F47F7444F0030423EA04042143516022
:101E30005DF8044B70472DE9F041044603689E6944
:101E400016F010067CD00D4690461022DA6100266E
:101E500037462368986910F0200F30D17FBBB5F169
:101E6000FF3FF6D0FFF75CFEA0EB0800A84201D8C8
:101E7000002DEED121684B6803F4804394F8422092
:101E8000D2B2886910F4004F02D00BB9202A0ED1CB
:101E900023689B6913F0200FDBD1FFF741FEA0EB15
:101EA00008001928F4D946F020060127D1E74B682D
:101EB00043F480434B60FFF733FE8046E8E70FB9F9
:101EC0002022DA6146F0040601252268936913F4A2
:101ED000807F05D046F001064FF48071D161012565
:101EE00013F4806F06D046F0080622684FF4806134
:101EF000D161012513F4007F24D046F00206236847
:101F00004FF40072DA6101252046FFF765FF226871
:101F1000536823F0FF7323F48B3323F4FF7323F010
:101F200001035360636C1E436664202384F84130D0
:101F3000002384F8423084F840302846BDE8F08120
:101F40000025C2E7002DF8D0DEE770B504460D4647
:101F5000164623689B6913F0020F22D132462946A8
:101F60002046FFF768FFF0B9B5F1FF3FF1D0FFF76A
:101F7000D7FD801BA84201D8002DEAD123689B69B8
:101F800013F0020FE5D1636C43F020036364202358
:101F900084F84130002384F8423084F84030012036
:101FA00000E0002070BD0120FCE72DE9F04105466E
:101FB0000F46164698462C68A46937EA04030CBFFE
:101FC0004FF0010C4FF0000CB44522D1B8F1FF3FA7
:101FD000F1D0FFF7A5FD069BC01A404502D8B8F125
:101FE000000FE8D12B689B6937EA03030CBF01237C
:101FF0000023B342DFD16B6C43F020036B642023DA
:1020000085F84130002385F8423085F840300120C2
:1020100000E00020BDE8F0812DE9F04182B00446E7
:1020200090461D46089E099F184B00930023EAB274
:10203000FFF7E3FE3A4631462046FFF786FFF8B940
:10204000012D0ED123685FFA88F29A620097334619
:10205000002240212046FFF7A8FFA8B902B0BDE842
:10206000F08123684FEA18229A623A4631462046A8
:10207000FFF76BFF30B923685FFA88F29A62E5E7F1
:102080000120EBE70120E9E70120E7E700200080DD
:1020900070B504460D46164604E023689B6913F0AC
:1020A000200F12D023689B6913F0200F1BD13246FA
:1020B00029462046FFF7BFFEB8B9FFF731FD801B68
:1020C000A842EAD8002DEDD1E7E7636C43F0200386
:1020D0006364202384F84130002384F8423084F87C
:1020E0004030012000E0002070BD0120FCE7002806
:1020F00059D010B5044690F84130002B43D024232A
:1021000084F841302268136823F001031360636888
:10211000226823F0706313612268936823F40043FC
:102120009360E368012B33D0A368226843F404432F
:102130009360E368022B31D02268536843F0007348
:1021400043F4004353602268D36823F40043D36010
:10215000236962691343A169226843EA0123D360BA
:10216000E369216A22680B4313602268136843F015
:102170000103136000206064202384F84130206351
:1021800084F8420010BD80F84030FFF7A3FAB6E7AC
:10219000A368226843F400439360CAE723684FF4BE
:1021A00000625A60C8E70120704700002DE9F04F37
:1021B00083B00E46BDF834A00E9D90F84110C9B210
:1021C000202940F0BC800446904699460C9BCBB138
:1021D000BAF1000F16D090F84030012B00F0B38018
:1021E0004FF0010B80F840B0FFF79AFC07460090D3
:1021F00019235A464FF400412046FFF7D6FE30B16E
:1022000001209DE04FF400736364012098E02223D5
:1022100084F84130402384F84230002363640C9AF0
:102220006262A4F82AA06363019700954B46424678
:1022300031462046FFF7F0FE70B9638D9BB2FF2B4D
:102240000FD9FF222285444B00934FF08073314613
:102250002046FFF7D2FD21E0002384F840305846A5
:102260006EE0628D92B222853B4B00934FF000737B
:10227000D2B231462046FFF7C0FD0FE0628D92B228
:102280002285002300934FF00073D2B231462046DE
:10229000FFF7B3FD638D9BB2002B34D000972B4624
:1022A000002204212046FFF780FE00284DD123683C
:1022B0005A6A636A1A70636A01336362228D013A53
:1022C00092B22285638D9BB2013B9BB26385638D85
:1022D0009BB2002BDED0002ADCD100972B46802158
:1022E0002046FFF762FE90BB638D9BB2FF2BC5D9E2
:1022F000FF222285002300934FF080733146204651
:10230000FFF77BFDC6E73A4629462046FFF7C0FEA9
:10231000F8B923682022DA6121684B6823F0FF7343
:1023200023F48B3323F4FF7323F001034B6084F811
:102330004120002384F8423084F8403000E002203D
:1023400003B0BDE8F08F0220FAE70120F8E7012092
:10235000F6E70120F4E700BF0024008090F8413048
:10236000DBB2202B24D190F84030012B22D0012366
:1023700080F84030242380F841300268136823F04D
:10238000010313600268136823F48053136002682A
:102390001368194311600268136843F00103136066
:1023A000202380F84130002380F8403018467047E1
:1023B000022070470220704790F84130DBB2202B9A
:1023C00022D190F84030012B20D0012380F84030FA
:1023D000242380F841300268136823F0010313605E
:1023E0000268136823F4706343EA012111600268F4
:1023F000136843F001031360202380F84130002369
:1024000080F840301846704702207047022070471D
:10241000002800F00A8370B582B00446036813F008
:10242000010F3DD0B34B5B6803F00C03042B20D0AD
:10243000B04B5B6803F00C03082B13D06368B3F553
:10244000803F6AD0002B40F08D8003F1804303F57C
:1024500004331A6822F480321A601A6822F4802247
:102460001A605FE0A34B5B6803F4C033B3F5803FB1
:10247000E4D14FF4003393FAA3F39E4B19684FF461
:10248000003393FAA3F3B3FA83F303F01F0301229B
:1024900002FA03F30B4203D06368002B00F0C782FB
:1024A000236813F0020F00F0C080924B5B6813F0BA
:1024B0000C0F00F097808F4B5B6803F00C03082B28
:1024C00000F08880E368002B00F0ED80012292FA92
:1024D000A2F3B3FA83F303F1845303F584139B004F
:1024E0001A60FFF71DFB0546022393FAA3F3814B05
:1024F0001968022393FAA3F3B3FA83F303F01F03DB
:10250000012202FA03F30B4240F0BE80FFF708FB02
:10251000401B0228E8D9032092E2764A136843F46C
:10252000803313606368002B36D0FFF7F9FA054655
:102530004FF4003393FAA3F36E4B19684FF4003352
:1025400093FAA3F3B3FA83F303F01F03012202FA11
:1025500003F30B42A4D1FFF7E3FA401B6428E7D949
:1025600003206DE2B3F5A02F09D0624B1A6822F464
:1025700080321A601A6822F480221A60D2E703F1CE
:102580008043A3F53C331A6842F480221A601A682B
:1025900042F480321A60C5E7FFF7C2FA05464FF4ED
:1025A000003393FAA3F3534B19684FF4003393FAB3
:1025B000A3F3B3FA83F303F01F03012202FA03F338
:1025C0000B423FF46DAFFFF7ABFA401B6428E6D92E
:1025D000032035E2474B5B6803F4C033B3F5004F8B
:1025E0007FF470AF022393FAA3F3424B19680223DE
:1025F00093FAA3F3B3FA83F303F01F03012202FA61
:1026000003F30B4203D0E368934240F0128239484F
:10261000036823F0F8032169F82292FAA2F2B2FAD1
:1026200082F201FA02F213430360236813F0080FE9
:1026300000F08C806369002B60D0012191FAA1F237
:10264000B2FA82F22C4B13449B001960FFF768FA30
:102650000546022393FAA3F293FAA3F293FAA3F2A4
:10266000244A516A93FAA3F3B3FA83F303F01F03E6
:10267000012202FA03F30B4268D1FFF751FA401B23
:102680000228E6D90320DBE11A48036823F0F803A7
:102690002169F82292FAA2F2B2FA82F201FA02F267
:1026A00013430360C1E7012393FAA3F3B3FA83F35F
:1026B00003F1845303F584139B0000221A60FFF793
:1026C0002FFA0546022393FAA3F30A4B1968022353
:1026D00093FAA3F3B3FA83F303F01F03012202FA80
:1026E00003F30B42A1D0FFF71BFA401B0228E9D9E4
:1026F0000320A5E10010024020819010012292FAEF
:10270000A2F2B2FA82F29C4B13449B0000221A60A0
:10271000FFF706FA0546022393FAA3F293FAA3F20F
:1027200093FAA3F2954A516A93FAA3F3B3FA83F3A7
:1027300003F01F03012202FA03F30B4206D0FFF756
:10274000EFF9401B0228E6D9032079E1236813F052
:10275000040F00F0A980894BDB6913F0805F20D162
:10276000864BDA6942F08052DA61DB6903F080530C
:102770000193019B0125824B1B6813F4807F12D0CB
:10278000A368012B23D073BB03F1804303F504330B
:102790001A6A22F001021A621A6A22F004021A620C
:1027A0001AE00025E7E7764A136843F48073136064
:1027B000FFF7B6F90646724B1B6813F4807FDFD132
:1027C000FFF7AEF9801B6428F5D9032038E16B4A86
:1027D000136A43F001031362A368002B3CD0FFF798
:1027E0009FF906462BE0052B09D0644B1A6A22F0AC
:1027F00001021A621A6A22F004021A62ECE75F4BC5
:102800001A6A42F004021A621A6A42F001021A625B
:10281000E2E75A4B196A022393FAA3F3B3FA83F35C
:1028200003F01F03012202FA03F319423BD1FFF721
:1028300077F9801B41F28833984200F2FC80022332
:1028400093FAA3F293FAA3F3002BE2D1022393FAB3
:10285000A3F34A4B596ADEE7FFF762F9064615E033
:10286000464B196A022393FAA3F3B3FA83F303F0F6
:102870001F03012202FA03F3194214D0FFF750F9A3
:10288000801B41F28833984200F2D780022393FAEA
:10289000A3F293FAA3F3002BE2D1022393FAA3F35A
:1028A000364B596ADEE7B5BBA369002B00F0C78041
:1028B000324A526802F00C02082A00F0A080022B73
:1028C0002FD04FF0807393FAA3F3B3FA83F303F19D
:1028D000845303F584139B0000221A60FFF720F94C
:1028E00004464FF0007393FAA3F3244B19684FF09A
:1028F000007393FAA3F3B3FA83F303F01F030122E7
:1029000002FA03F3194278D0FFF70AF9001B0228F4
:10291000E7D9032094E0194AD36923F08053D361A7
:10292000C2E74FF0807393FAA3F3B3FA83F303F192
:10293000845303F584139B0000221A60FFF7F0F81C
:1029400005464FF0007393FAA3F30C4B19684FF050
:10295000007393FAA3F3B3FA83F303F01F03012286
:1029600002FA03F319420DD0FFF7DAF8401B0228F0
:10297000E7D9032064E000BF2081901000100240DE
:1029800000700040334AD36A23F00F03616A0B439F
:10299000D362536823F47613216AE06901430B4341
:1029A00053604FF0807393FAA3F3B3FA83F303F108
:1029B000845303F584139B0001221A60FFF7B0F8DB
:1029C00004464FF0007393FAA3F3224B19684FF0BB
:1029D000007393FAA3F3B3FA83F303F01F03012206
:1029E00002FA03F3194206D1FFF79AF8001B0228F6
:1029F000E7D9032024E0002022E0002020E0012B82
:102A000020D0144A5368D06A03F4C031E26991427D
:102A10001AD103F47013226A934217D100F00F0009
:102A2000636A984214D100200AE001207047012017
:102A300006E0012004E0032002E0032000E0002083
:102A400002B070BD0120FBE70120F9E70120F7E7A4
:102A50000120F5E700100240174B5B6803F00C0201
:102A6000082A01D01548704703F470114FF4701212
:102A700092FAA2F2B2FA82F221FA02F21049885CCA
:102A80000D4AD26A02F00F020F2191FAA1F1B1FAB8
:102A900081F1CA400B498A5C13F4803F05D0074B93
:102AA000B3FBF2F303FB00F07047044BB3FBF2F30C
:102AB00003FB00F0704700BF0010024000127A00D4
:102AC000BCC50008CCC50008002800F0BE8070B569
:102AD0000D460446614B1B6803F007038B420BD283
:102AE0005E4A136823F007030B431360136803F077
:102AF00007038B4240F0AB80236813F0020F06D02F
:102B0000574A536823F0F003A1680B4353602368CE
:102B100013F0010F5AD06368012B2DD0022B40D047
:102B2000022292FAA2F24E4A1068022292FAA2F20D
:102B3000B2FA82F202F01F02012101FA02F21042FF
:102B400000F0878046494A6822F0030213434B6035
:102B5000FEF7E6FF0646424B5B6803F00C03626833
:102B6000B3EB820F32D0FEF7DBFF801B41F28833DC
:102B70009842F0D9032067E04FF4003292FAA2F2B3
:102B8000374A10684FF4003292FAA2F2B2FA82F297
:102B900002F01F02012101FA02F20242D2D1012009
:102BA00052E04FF0007292FAA2F22D4A10684FF0F4
:102BB000007292FAA2F2B2FA82F202F01F0201212E
:102BC00001FA02F21042BDD101203DE0234B1B6807
:102BD00003F00703AB420AD9204A136823F0070326
:102BE0002B431360136803F00703AB4233D1236810
:102BF00013F0040F06D01A4A536823F4E063E16827
:102C00000B435360236813F0080F07D0144A53682E
:102C100023F46053216943EAC1035360FFF71CFFAB
:102C20000F4B5B6803F0F003F02292FAA2F2B2FAC3
:102C300082F2D3400B4AD35CD8400B4B18600B4B4D
:102C40001868FEF717FE002070BD012070470120B4
:102C5000FAE70120F8E70120F6E700BF0020024074
:102C600000100240A4C50008000000200800002059
:102C7000014B1868704700BF0000002008B5FFF73F
:102C8000F7FF074B5B6803F4E0634FF4E06292FAEE
:102C9000A2F2B2FA82F2D340024AD35CD84008BD15
:102CA00000100240B4C5000808B5FFF7E1FF074B6C
:102CB0005B6803F460534FF4605292FAA2F2B2FAE6
:102CC00082F2D340024AD35CD84008BD00100240D3
:102CD000B4C500080F2303600B4B5A6802F00302CF
:102CE00042605A6802F0F00282605A6802F4E062C0
:102CF000C2605B68DB0803F4E0630361034B1B689D
:102D000003F007030B6070470010024000200240F0
:102D1000F0B583B00446036813F4803F48D0A14B5C
:102D2000DB6913F0805F40F021819E4BDA6942F04D
:102D30008052DA61DB6903F080530193019B012526
:102D4000994B1B6813F4807F00F01281954B1B6A2E
:102D500013F4407322D0626802F440729A421DD08C
:102D60009048016A21F440764FF4803393FAA3F23D
:102D7000B2FA82F28D4F3A4492004FF0010CC2F841
:102D800000C093FAA3F3B3FA83F33B449B00002201
:102D90001A60066211F0010F40F0FF80814A136A49
:102DA00023F4407361680B431362002D40F02381CC
:102DB000236813F0010F06D07A4A136B23F0030344
:102DC000A1680B431363236813F0020F06D0754A02
:102DD000136B23F44033E1680B431363236813F050
:102DE000040F06D06F4A136B23F4402321690B4371
:102DF0001363236813F0200F06D06A4A136B23F085
:102E00001003E1690B431363236813F4003F06D0FA
:102E1000644A536823F48003616D0B435360236855
:102E200013F0400F06D05F4A136B23F02003216A92
:102E30000B431363236813F4802F06D0594A136B96
:102E400023F04003616A0B431363236813F0080FF8
:102E500006D0544A136B23F4401361690B43136388
:102E6000236813F0100F06D04E4A136B23F440036F
:102E7000A1690B431363236813F4007F06D0494A0A
:102E8000536823F40003216B0B435360236813F052
:102E9000800F06D0434AD36A23F4F873A16A0B4328
:102EA000D362236813F4807F06D03E4AD36A23F4AA
:102EB0007853E16A0B43D362236813F4805F06D032
:102EC000384A136B23F48073616B0B4313632368DD
:102ED00013F4005F06D0334A136B23F40073216CA4
:102EE0000B431363236813F4801F06D02D4A136B22
:102EF00023F08073A16B0B431363236813F4001F4B
:102F000006D0284A136B23F00073E16B0B43136365
:102F1000236813F4800F06D0224A136B23F48063D6
:102F2000616C0B431363236813F4000F06D01D4A32
:102F3000136B23F40063A16C0B431363236813F03A
:102F4000807F06D0174A136B23F40053E16C0B43C8
:102F50001363236813F0007F54D0124A136B23F4D9
:102F60000043216D0B43136300204CE00025E7E68E
:102F70000D4A136843F480731360FEF7D1FD0646D3
:102F8000094B1B6813F4807F7FF4E0AEFEF7C8FDA9
:102F9000801B6428F4D9032035E0FEF7C1FD064606
:102FA0001CE000BF00100240007000400081901043
:102FB000164B196A022393FAA3F3B3FA83F303F0CF
:102FC0001F03012202FA03F30B427FF4E7AEFEF780
:102FD000A7FD801B41F28833984211D8022393FA4F
:102FE000A3F293FAA3F3002BE2D1022393FAA3F303
:102FF000064B596ADEE7D36923F08053D361D7E6E5
:10300000032000E0002003B0F0BD00BF001002402C
:103010007047000090F83D30DBB2012B36D102231F
:1030200080F83D300268D36843F00103D360036841
:10303000194A93421CD0B3F1804F19D0A2F59432B3
:10304000934215D002F58062934211D002F5963278
:1030500093420DD002F54062934209D002F58052AE
:10306000934205D01A6842F001021A6000207047AE
:1030700099680A4A0A40062A0AD0B2F5803F09D068
:103080001A6842F001021A60002070470120704760
:103090000020704700207047002C0140070001000D
:1030A000704770477047704710B5044603681A6947
:1030B00012F0020F11D0DA6812F0020F0DD06FF08B
:1030C00002021A610123037703689B6913F0030F5F
:1030D00079D0FFF7E6FF0023237723681A6912F0FF
:1030E000040F12D0DA6812F0040F0ED06FF0040251
:1030F0001A610223237723689B6913F4407F68D009
:103100002046FFF7CEFF0023237723681A6912F0C9
:10311000080F12D0DA6812F0080F0ED06FF0080214
:103120001A61042323772368DB6913F0030F57D058
:103130002046FFF7B6FF0023237723681A6912F0B1
:10314000100F12D0DA6812F0100F0ED06FF01002CC
:103150001A61082323772368DB6913F4407F46D084
:103160002046FFF79EFF0023237723681A6912F099
:10317000010F03D0DA6812F0010F3FD123681A69FA
:1031800012F0800F03D0DA6812F0800F3DD123686F
:103190001A6912F4807F03D0DA6812F0800F3BD1F5
:1031A00023681A6912F0400F03D0DA6812F0400F5A
:1031B00039D123681A6912F0200F03D0DA6812F0AF
:1031C000200F37D110BDFFF76BFF2046FFF76AFFD6
:1031D00081E72046FFF764FF2046FFF763FF92E791
:1031E0002046FFF75DFF2046FFF75CFFA3E7204680
:1031F000FFF756FF2046FFF755FFB4E76FF00102D7
:103200001A612046FEF708FBB8E76FF080021A61EA
:10321000204600F0B0F8BAE76FF480721A612046D9
:1032200000F0AAF8BCE76FF040021A612046FFF7F1
:103230003AFFBEE76FF020021A61204600F09AF8CC
:10324000C0E700000368324A904212D0B0F1804FCC
:103250000FD0A2F5943290420BD002F580629042DA
:1032600007D002F59632904203D002F5E052904228
:1032700003D123F070034A681343254A90421ED0BD
:10328000B0F1804F1BD0A2F59432904217D002F5D6
:103290008062904213D002F5963290420FD002F530
:1032A000406290420BD002F58062904207D002F556
:1032B0008062904203D002F50062904203D123F471
:1032C0004073CA68134323F080034A6913430360C1
:1032D0008B68C3620B6883620D4B984213D003F571
:1032E000006398420FD003F5406398420BD003F57A
:1032F0008063984207D003F58063984203D003F5BA
:103300000063984201D10B69036301234361704755
:10331000002C014060B310B5044690F83D3013B363
:10332000022384F83D30214651F8040BFFF78AFF51
:10333000012384F8483084F83E3084F83F3084F824
:10334000403084F8413084F8423084F8433084F8C7
:10335000443084F8453084F8463084F8473084F8A7
:103360003D30002010BD80F83C30FFF751FED7E71C
:1033700001207047704770477047026852E8003F6D
:1033800023F4907342E800310029F6D1026802F17B
:10339000080353E8003F23F00103083242E80031FC
:1033A0000029F3D1036E012B06D02023C0F8803012
:1033B0000023036683667047026852E8003F23F0EB
:1033C000100342E800310029F6D1EEE710B50446BB
:1033D00083680269134342691343C2691343016856
:1033E0000868864A024013430B602268536823F43E
:1033F0004053E1680B435360A269236A1A43216872
:103400008B6823F4306313438B6023687C4A9342B8
:103410000DD07C4A93421CD07B4A93423AD07B4ADF
:1034200093424AD07A4A93425AD010231FE0794BF4
:103430001B6B03F00303032B09D8DFE803F002043E
:103440000664012313E0042311E008230FE0102396
:103450000DE0704B1B6B03F44033B3F5003F54D0C9
:1034600013D8002B53D0B3F5803F52D10423E06929
:10347000B0F5004F69D0082B00F2B980DFE803F007
:1034800092A890B7ABB7B7B7AE00B3F5403F42D103
:103490000223ECE75F4B1B6B03F44023B3F5002FD3
:1034A0003BD005D8DBB3B3F5802F3AD10423DEE758
:1034B000B3F5402F37D10223D9E7564B1B6B03F4EA
:1034C0004013B3F5001F30D005D883B3B3F5801F88
:1034D0002FD10423CBE7B3F5401F2CD10223C6E73D
:1034E0004C4B1B6B03F44003B3F5000F25D005D8FC
:1034F0002BB3B3F5800F24D10423B8E7B3F5400F05
:1035000021D10223B3E70223B1E70823AFE7002369
:10351000ADE71023ABE71023A9E70823A7E70023B3
:10352000A5E71023A3E71023A1E708239FE70023C3
:103530009DE710239BE7102399E7082397E70023D3
:1035400095E7102393E7102391E7082B49D8DFE88C
:1035500003F0051F2548224848480900FFF78EFB65
:10356000002840D06268530803EB4000B0FBF2F043
:10357000A0F110024FF6EF739A4236D883B223F0CF
:103580000F03C0F3420018432368D86000201BE0FB
:10359000FFF78AFBE4E7FFF75FFAE1E71E48E1E7A0
:1035A0001D4802E0FFF76AFB18B3636800EB5300A5
:1035B000B0FBF3F0A0F110024FF6EF739A421AD865
:1035C000236880B2D86000200023A366E36610BDA4
:1035D000FFF76AFBE8E7FFF73FFAE5E74FF4004043
:1035E000E3E70120F0E70020EEE70120ECE701200F
:1035F000EAE70020E8E70120E6E700BFF369FFEF14
:10360000003801400044004000480040004C0040A9
:10361000005000400010024000127A00436A13F08C
:10362000010F06D00268536823F40033816A0B430C
:103630005360436A13F0020F06D00268536823F404
:103640008033C16A0B435360436A13F0040F06D002
:103650000268536823F48023016B0B435360436A71
:1036600013F0080F06D00268536823F40043416B3F
:103670000B435360436A13F0100F06D0026893683F
:1036800023F48053816B0B439360436A13F0200F44
:1036900006D00268936823F40053C16B0B43936018
:1036A000436A13F0400F0AD00268536823F4801372
:1036B000016C0B435360036CB3F5801F0BD0436A5E
:1036C00013F0800F06D00268536823F40023816C46
:1036D0000B43536070470268536823F4C003416C86
:1036E0000B435360EBE72DE9F84305460F461646BA
:1036F0009946DDF820802C68E46937EA04030CBFA2
:103700004FF0010C4FF0000CB44532D1B8F1FF3F3F
:10371000F1D0FEF705FAA0EB090040452CD8B8F12E
:10372000000F2BD02B681A6812F0040FE3D0DA696F
:1037300012F0080F11D1DA6912F4006FDBD04FF4E8
:1037400000621A622846FFF718FE2023C5F884306D
:10375000002385F8783003200CE008241C622846FA
:10376000FFF70BFEC5F88440002385F87830012070
:1037700000E00020BDE8F8830320FBE70320F9E721
:103780002DE9F04182B01E46C36F202B56D104466E
:103790000D469046002955D00AB901204FE000237C
:1037A000C0F884302123C367FEF7BAF90746A4F8AE
:1037B0005080A4F85280A368B3F5805F02D04FF028
:1037C000000818E0236913B14FF0000813E0A84681
:1037D000002510E02023E367032030E038F8023BA7
:1037E0002268C3F308031385B4F8522092B2013A59
:1037F00092B2A4F85220B4F852309BB27BB100963A
:103800003B46002280212046FFF76DFF0028E1D1D2
:10381000002DE3D0236815F8012B1A85E4E7009604
:103820003B46002240212046FFF75DFF10B92023D0
:10383000E36704E02023E367032000E0022002B0F6
:10384000BDE8F0810120FAE730B583B004460023DB
:10385000C0F88430FEF764F905462268126812F059
:10386000080F0FD123681B6813F0040F26D1202303
:10387000E367C4F8803000202066606684F8780032
:1038800003B030BD6FF07E430093034600224FF437
:1038900000112046FFF727FF0028E3D0226852E8F6
:1038A000003F23F0800342E800310029F6D12023B5
:1038B000E367002384F878300320E1E76FF07E436C
:1038C00000932B4600224FF480012046FFF70BFFA8
:1038D0000028CCD0226852E8003F23F4907342E8DD
:1038E00000310029F6D1226802F1080353E8003FB5
:1038F00023F00103083242E800310029F3D12023EC
:10390000C4F88030002384F878300320B8E768B327
:1039100010B50446C36F03B32423E367226813681A
:1039200023F0010313602046FFF750FD012813D058
:10393000636ABBB92268536823F4904353602268DA
:10394000936823F02A0393602268136843F001030D
:1039500013602046FFF778FF10BD80F87830FEF73F
:1039600065F8D9E72046FFF759FEE3E701207047E5
:1039700008B502F0BEFB10B102684068904708BD70
:10398000EFF3058393B9EFF3108393B90C4B1868E9
:10399000022804D080B90A4B01221A607047EFF365
:1039A0001183002BF6D06FF0050070476FF0050013
:1039B00070476FF0050070474FF0FF30704700BF51
:1039C0004812002008B5EFF30583B3B9EFF3108375
:1039D000B3B90E4B1B68022B08D0012B13D10B4B34
:1039E00002221A6001F0D6FC002008BDEFF311821C
:1039F000002AF2D06FF00500F7E76FF00500F4E75A
:103A00006FF00500F1E74FF0FF30EEE748120020BD
:103A1000F0B587B000240494EFF30584002C44D162
:103A2000EFF31083002B40D1344B1B68022B16D0D0
:103A300000283AD000238DF817306AB3156895B185
:103A4000936903B918235C1E372C52D8546814F0BC
:103A5000010F50D156694EB14FEA960C08E0EFF3D2
:103A6000118313BBE4E70DF11705E9E74FF0800C74
:103A7000946834B1D768B7F5916F02D3176907B16D
:103A8000B6B914B14FF0FF340CE0D46894B914699E
:103A90009CB14FF0FF3405E0002418234FF0800C58
:103AA0000DF11705012C0AD0ACB1049807B0F0BD98
:103AB0000124F7E74FF0FF34F4E70024F2E714693C
:103AC00092680292019400930B466246294601F0E7
:103AD000EFFB0490E9E704AA019200930B461FFA5A
:103AE0008CF2294601F020FC0128DED0002304934B
:103AF000DBE70020DAE70020D8E700BF481200200B
:103B000008B5EFF30583A3B9EFF31083A3B90C4B0A
:103B10001B68022B02D040B9002008BDEFF31183CF
:103B2000002BF8D06FF00500F7E701F09FFD0020B3
:103B3000F3E76FF00500F0E76FF00500EDE700BF79
:103B4000481200202DE9F04383B0EFF30584002CE8
:103B500047D106460F4690461D46EFF31084A14616
:103B6000002C42D1244B1B68022B20D0002E3ED0CB
:103B7000082000F013FD002834D00660C0F804804F
:103B80000FB14FF001093DB32C68AB6813B1EA687F
:103B90002F2A17D88BB14FF0FF3353BB174B00932D
:103BA00003464A460121204602F0E6F81AE0EFF308
:103BB0001183002BDAD0002014E0EB687BB14FF0CA
:103BC000FF33EAE701930D4B009303464A46012178
:103BD000204602F0EDF805E02C460023DDE7002347
:103BE000DBE7002003B0BDE8F0830020FAE7002007
:103BF000F8E70020F6E700BF4812002071390008FE
:103C000008B5EFF3058333BBEFF310832BBB154BE4
:103C10001B68022B0CD0D0B1836813B1C2681F2A75
:103C200011D85BB14FF0FF33CBB900F0CEF913E000
:103C3000EFF31183002BEED000200DE0C36843B1F9
:103C40004FF0FF33F0E7184600F09AF904E0002344
:103C5000EAE70023E8E7002008BD0020FCE7002099
:103C6000FAE700BF4812002070B310B582B00C46CE
:103C7000034611F07F4F2AD1EFF305824AB9EFF3E3
:103C8000108232B9164A1268022A18D1EFF3118253
:103C9000AAB10022019201AA2146184600F072FA48
:103CA000C8B9019BD3B14FF0E0234FF08052C3F865
:103CB000042DBFF34F8FBFF36F8F204609E02146DD
:103CC000184600F014FA04E06FF0030070476FF03C
:103CD000030002B010BD6FF00200FAE72046F8E7DB
:103CE00048120020B0B370B582B00C461D46844621
:103CF00011F07F4F31D1EFF3058393BBEFF31083C6
:103D000093BB1E4B1B68022B13D012F0010617D079
:103D1000012312F0020F15D00022009521466046C3
:103D200000F061F986B1844219D005B36FF001004B
:103D300015E0EFF31183002BE7D06FF005000EE0E4
:103D40000023E6E70122E8E7044208D195B16FF0CD
:103D5000010004E06FF0030070476FF0030002B051
:103D600070BD6FF00500FAE76FF00500F7E76FF040
:103D70000200F4E76FF00200F1E700BF48120020F4
:103D800070B5EFF30583002B4ED10446EFF310829C
:103D90001346002A4BD1284A1268022A23D004B1C4
:103DA000636813F0010600D0012613F0080F40D11C
:103DB0007CB3A16811B1E3684F2B1FD8C9B14FF094
:103DC000FF337BBB4EB3042000F03BFE05462DB114
:103DD00004B124682146284601F076F82DB326B3B5
:103DE00045F0010521E0EFF31182002AD7D000252C
:103DF0001BE0E3687BB14FF0FF33E2E726B104201C
:103E000000F02AFE0546E2E7012000F025FE054607
:103E1000DDE70023D5E70023D3E7012000F011FE02
:103E20000546D4E70025D9E70025284670BD0025C2
:103E3000FBE70025F9E700BF48120020EFF30582F9
:103E400042BB10B503460C4620F0010003F001030D
:103E5000EFF310820ABB194A1268022A0AD0F8B19D
:103E60007BB1214601F00FF801281CD0ECB16FF0B6
:103E7000010019E0EFF31182002AF0D06FF0050085
:103E800012E0214600F02CFF012811D094B16FF010
:103E9000010009E06FF0050070476FF0050003E0D6
:103EA0006FF0030000E0002010BD6FF00200FBE7A0
:103EB0000020F9E76FF00200F6E700BF481200208B
:103EC000EFF3058222BB08B5034620F0010003F0A2
:103ED0000103EFF31082F2B9154A1268022A07D0E3
:103EE000E0B163B100F0C7FD01281AD1002008BD80
:103EF000EFF31182002AF3D06FF00500F7E70023FB
:103F00001A46194600F0CDFC01280DD10020EEE73D
:103F10006FF0050070476FF00500E8E76FF00300F1
:103F2000E5E76FF00200E2E76FF00200DFE700BFB5
:103F300048120020034B0360034B0B608023136087
:103F4000704700BFC00D0020C00B0020034B036072
:103F5000034B0B604FF480731360704750160020C2
:103F60004C1200201AB9084206D11046704731EAB7
:103F7000000303D0002070470120704701207047E4
:103F800080B110B582B0044620230193019B202B01
:103F900011D04FF0500383F31188BFF36F8FBFF33D
:103FA0004F8FFEE74FF0500383F31188BFF36F8FFD
:103FB000BFF34F8FFEE7002340F8043B00F0ECF81E
:103FC00001232377204602B010BD38B5202000F031
:103FD000E5FA044628B1002540F8045B00F0DCF85F
:103FE0002577204638BD2DE9F84378B10C461646B2
:103FF0001D46074611F07F4811D04FF0500383F360
:104000001188BFF36F8FBFF34F8FFEE74FF0500360
:1040100083F31188BFF36F8FBFF34F8FFEE741B972
:104020004FF0500383F31188BFF36F8FBFF34F8FAF
:10403000FEE701F0D5FC50B9089B43B14FF05003A7
:1040400083F31188BFF36F8FBFF34F8FFEE701F04B
:10405000F7F9D7F800902A4621464846FFF782FF35
:10406000F0B116B129EA04033B6001F083FAB8F11C
:10407000000F12D048B94FF0E0234FF08052C3F840
:10408000042DBFF34F8FBFF36F8F01F09DFD81466D
:1040900010F0007F1AD029F07F494846BDE8F88328
:1040A000089B83B166B941460DB141F08061089A21
:1040B0002143381D01F068FBC146DDF82080D4E7BC
:1040C0004FF08071F0E7DDF82080CEE700F012F9C4
:1040D000D7F800902A4621464846FFF743FF18B11B
:1040E00016B129EA04043C6000F026F9D3E7F8B5DC
:1040F00068B10D46044611F07F4711D04FF05003D0
:1041000083F31188BFF36F8FBFF34F8FFEE74FF03C
:10411000500383F31188BFF36F8FBFF34F8FFEE718
:1041200000F10C0601F08CF9206923682B43236011
:104130000AE0216832EA010105D111E0216841F06D
:10414000007101F0AFFB2846B0420ED0456803680D
:1041500023F07F4213F0806FEBD121681142F2D03F
:1041600013F0807FEAD01743E8E7236823EA0703C8
:10417000236001F0FFF92068F8BD08B5FFF7B7FF2D
:1041800008BD000008B513460A460146014801F083
:10419000C3FF08BD7B41000800F1080343604FF0F6
:1041A000FF328260C3600361002303607047002315
:1041B0000361704743684B609A688A6051609960F8
:1041C0000861036801330360704730B40D68B5F1CE
:1041D000FF3F11D000F108031C465B681A68AA4231
:1041E000FAD963684B6099608C606160086103680C
:1041F0000133036030BC70470469F2E7036941682A
:1042000082688A60416851605A68824206D0002202
:1042100002611A68013A1A601868704782685A6029
:10422000F5E7000082B0002301930D4B1B68B3F14A
:10423000FF3F08D04FF0500383F31188BFF36F8F17
:10424000BFF34F8FFEE74FF0500383F31188BFF3A6
:104250006F8FBFF34F8F019B002BFCD002B07047D4
:104260000C00002008480068006880F308884FF0C0
:10427000000080F3148862B661B6BFF34F8FBFF3BE
:104280006F8F00DF00BF000008ED00E0DFF80C00DA
:10429000016841F4700101607047000088ED00E0A2
:1042A0004FF0807340F8043C21F0010140F8081CF5
:1042B000054B40F80C3C40F8202C6FF0020340F80E
:1042C000243C4438704700BF25420008000000002D
:1042D000074B19680868B0E8F04F80F30988BFF30E
:1042E0006F8F4FF0000080F311887047AFF30080AC
:1042F000201B00204FF0500383F31188BFF36F8F12
:10430000BFF34F8F0B4A136801331360012B00D0AA
:1043100070474FF0E023D3F8043D13F0FF0FF7D0C0
:104320004FF0500383F31188BFF36F8FBFF34F8FAC
:10433000FEE700BF0C000020094B1B6843B94FF09B
:10434000500383F31188BFF36F8FBFF34F8FFEE7E6
:10435000013B034A13600BB983F31188704700BF18
:104360000C00002000000000000000000000000021
:10437000EFF30980BFF36F8F154B1A681EF0100F13
:1043800008BF20ED108A20E9F04F10602DE90900E8
:104390004FF0500080F31188BFF34F8FBFF36F8F42
:1043A00001F08AF94FF0000080F3118809BC196808
:1043B0000868B0E8F04F1EF0100F08BFB0EC108A8C
:1043C00080F30988BFF36F8F704700BFAFF30080A1
:1043D000201B002008B54FF0500383F31188BFF372
:1043E0006F8FBFF34F8F01F039F828B14FF0E02302
:1043F0004FF08052C3F8042D002383F3118808BDC9
:104400004FF0E022002313619361054B1B680549BF
:10441000A1FB03139B09013B536107231361704701
:1044200000000020D34D62104FF0E023D3F8002DA0
:104430003D4B9A421CD04FF0E023D3F8002D3B4B6C
:104440009A421ED030B583B0394B1A78D2B201925D
:10445000FF221A701B78DBB28DF803309DF8033011
:1044600003F05003334A1370334B07221A601BE0EA
:104470004FF0500383F31188BFF36F8FBFF34F8F5B
:10448000FEE74FF0500383F31188BFF36F8FBFF344
:104490004F8FFEE7284A1368013B13609DF80330F5
:1044A0005B00DBB28DF803309DF8033013F0800F12
:1044B000F0D1214B1B68032B08D04FF0500383F33E
:1044C0001188BFF36F8FBFF34F8FFEE71B021A4AAD
:1044D000136003F4E0631360019BDBB2144A1370B2
:1044E0004FF0E024D4F8203D43F47003C4F8203D9D
:1044F000D4F8203D43F07043C4F8203DFFF780FF1F
:1045000000250E4B1D60FFF7C1FED4F8343F43F089
:104510004043C4F8343FFFF7A5FE01F0CDF8FFF7A4
:1045200081FE284603B030BD71C20F4170C20F41F9
:1045300000E400E0D81A0020DC1A00200C00002063
:10454000EFF305830F2B0FD9114A9B5CDBB2114AA5
:1045500012789A4208D94FF0500383F31188BFF3C1
:104560006F8FBFF34F8FFEE74FF0E023D3F80C3D82
:1045700003F4E063084A1268934208D94FF05003ED
:1045800083F31188BFF36F8FBFF34F8FFEE7704740
:10459000F0E300E0D81A0020DC1A002010B5044631
:1045A00000F04EFF204601F0F5FD044600F0E2FF6A
:1045B000204610BD48B110B5044600F041FF20462A
:1045C00001F0F0FD00F0D6FF10BD70470346406AD1
:1045D00018B11B6B1868C0F13800704710B504465D
:1045E000FFF788FEA26BE36B9A4204D00024FFF72A
:1045F000A3FE204610BD0124F9E710B50446FFF7DD
:1046000079FEA36B23B90124FFF796FE204610BD67
:104610000024F9E770B504461546866B026C5AB95A
:1046200003681BB100200136A66370BD406801F02D
:1046300033FA00236360F6E76DB98068FBF7ECFF9F
:10464000226CA3681344A3606268934219D3236861
:10465000A3602846E7E7C068FBF7DEFF226C514203
:10466000E3689B1AE3602268934202D263680B44BA
:10467000E360022D01D00020D5E726B1013E0020E5
:10468000D1E72846CFE70020CDE70346026C6AB1A8
:1046900010B50846D9681144D9605C68A14201D3BD
:1046A0001968D960D968FBF7B7FF10BD704738B5F6
:1046B0000546FFF71FFE95F8454064B201E0013C56
:1046C00064B2002C0ADD6B6A43B105F1240001F0ED
:1046D000A3F80028F3D001F077F9F0E7FF2385F87D
:1046E0004530FFF729FEFFF705FE95F8444064B218
:1046F00001E0013C64B2002C0ADD2B6943B105F1F5
:10470000100001F089F80028F3D001F05DF9F0E71E
:10471000FF2385F84430FFF70FFE38BD38B5E0B110
:104720000D460446FFF7E6FD2368E26B216C01FBB2
:10473000023060600020A063A360013A02FB0133F5
:10474000E360FF2384F8443084F84530FDB92369E1
:1047500063B9FFF7F1FD012038BD4FF0500383F33B
:104760001188BFF36F8FBFF34F8FFEE704F1100086
:1047700001F052F80028ECD04FF0E0234FF08052C7
:10478000C3F8042DBFF34F8FBFF36F8FE1E704F140
:104790001000FFF701FD04F12400FFF7FDFCD8E74E
:1047A00038B51D46049C0B4649B92460E063236478
:1047B00001212046FFF7B2FF84F84C5038BD22603B
:1047C000F4E740B94FF0500383F31188BFF36F8FC4
:1047D000BFF34F8FFEE710B584B01C46844653B13B
:1047E00092B189B94FF0500383F31188BFF36F8FF3
:1047F000BFF34F8FFEE74FF0500383F31188BFF3F1
:104800006F8FBFF34F8FFEE76AB150230393039B73
:10481000502B13D04FF0500383F31188BFF36F8FE9
:10482000BFF34F8FFEE70029EFD04FF0500383F323
:104830001188BFF36F8FBFF34F8FFEE7012384F81A
:10484000463000949DF818306046FFF7A9FF2046D7
:1048500004B010BD40B94FF0500383F31188BFF38B
:104860006F8FBFF34F8FFEE7F0B583B00C46154650
:104870000746A1B101FB00F05030FFF78FFE06465E
:1048800050B1002380F8463000902B4600F15002D2
:1048900021463846FFF784FF304603B0F0BD084696
:1048A000EAE7F0B585B0019288B10F461D4604468F
:1048B000B1B1022D20D1E36B012B1DD04FF050037D
:1048C00083F31188BFF36F8FBFF34F8FFEE74FF075
:1048D000500383F31188BFF36F8FBFF34F8FFEE751
:1048E000036C002BE5D04FF0500383F31188BFF326
:1048F0006F8FBFF34F8FFEE701F072F8064658B98D
:10490000019B002B48D04FF0500383F31188BFF375
:104910006F8FBFF34F8FFEE700263DE02A463946F2
:104920002046FFF777FE636A7BB948B14FF0E0237A
:104930004FF08052C3F8042DBFF34F8FBFF36F8F3A
:10494000FFF7FAFC012005B0F0BD04F1240000F0EF
:1049500063FF0028F4D04FF0E0234FF08052C3F8FB
:10496000042DBFF34F8FBFF36F8FE9E7FFF7E4FC30
:104970000020E8E702A800F0D9FF012619E0002393
:1049800084F8443021E0002384F8453023E02046B9
:10499000FFF78DFE00F0EEFDFFF7ACFCA26BE36BC2
:1049A0009A42BBD3022DB9D0019B002BDED0002E42
:1049B000E0D0FFF7C1FC00F043FDFFF79BFC94F84B
:1049C000442052B2B2F1FF3FD9D094F8452052B200
:1049D000B2F1FF3FD7D0FFF7AFFC01A902A800F06A
:1049E000B1FFD8B92046FFF7F9FD0028CFD00199D3
:1049F00004F1100000F0B0FE2046FFF758FE00F072
:104A0000B9FD0028C8D14FF0E0234FF08052C3F821
:104A1000042DBFF34F8FBFF36F8FBDE72046FFF725
:104A200046FE00F0A7FD00208DE748B108B5002143
:104A300041600160C1600B460A46FFF732FF08BDC6
:104A4000704710B5024600210120FFF703FF04461E
:104A5000FFF7EBFF204610BD10B582B00B4600906B
:104A6000002211460120FFF7ACFE0446FFF7DDFFF0
:104A7000204602B010BD38B538B10446456800F094
:104A8000A9FF85420AD0002038BD4FF0500383F3C0
:104A90001188BFF36F8FBFF34F8FFEE7E368013BD1
:104AA000E3600BB10120EFE71A4619462046FFF7F5
:104AB000F8FE0120E8E72DE9F84390B10F461646CD
:104AC0001C460546B1B1022C20D1EB6B012B1DD049
:104AD0004FF0500383F31188BFF36F8FBFF34F8FF5
:104AE000FEE74FF0500383F31188BFF36F8FBFF3DE
:104AF0004F8FFEE7036C002BE5D04FF0500383F39C
:104B00001188BFF36F8FBFF34F8FFEE7FFF718FDDC
:104B1000EFF311894FF0500383F31188BFF36F8FC8
:104B2000BFF34F8FAA6BEB6B9A4206D3022C04D0D3
:104B3000002089F31188BDE8F88395F845804FFA85
:104B400088F8224639462846FFF764FDB8F1FF3F52
:104B500006D008F101035BB285F845300120E8E793
:104B60006B6A0BB90120E4E705F1240000F054FE64
:104B700018B126B101203060DBE70120D9E7012020
:104B8000D7E7F0B585B0019290B10F460446C1B1A8
:104B900000F026FF064600BB019B002B5ED04FF0C5
:104BA000500383F31188BFF36F8FBFF34F8FFEE77E
:104BB0004FF0500383F31188BFF36F8FBFF34F8F14
:104BC000FEE7036C002BE3D04FF0500383F3118812
:104BD000BFF36F8FBFF34F8FFEE700263EE03946ED
:104BE0002046FFF752FD013DA563236923B9FFF776
:104BF000A3FB012005B0F0BD04F1100000F00CFE95
:104C00000028F4D04FF0E0234FF08052C3F8042D79
:104C1000BFF34F8FBFF36F8FE9E7FFF78DFB0020E6
:104C2000E8E702A800F082FE012621E0002384F8D4
:104C3000443029E0002384F845302BE02046FFF77C
:104C400036FD00F097FC09E02046FFF730FD00F04C
:104C500091FC2046FFF7D1FC00283FD1FFF74AFB2B
:104C6000A56B002DBBD1019B002BD6D0002ED8D038
:104C7000FFF762FB00F0E4FBFFF73CFB94F84430E5
:104C80005BB2B3F1FF3FD1D094F845305BB2B3F1E2
:104C9000FF3FCFD0FFF750FB01A902A800F052FE62
:104CA0000028D1D12046FFF7A8FC0028C6D00199E2
:104CB00004F1240000F050FD2046FFF7F8FC00F05E
:104CC00059FC0028CAD14FF0E0234FF08052C3F8BE
:104CD000042DBFF34F8FBFF36F8FBFE7002089E72D
:104CE00070B584B0019158B10446036C8BB14FF09C
:104CF000500383F31188BFF36F8FBFF34F8FFEE72D
:104D00004FF0500383F31188BFF36F8FBFF34F8FC2
:104D1000FEE700F065FE054650B9019B5BB14FF020
:104D2000500383F31188BFF36F8FBFF34F8FFEE7FC
:104D30000026354655E0064653E0013BA363236851
:104D40003BB123694BB9FFF7F7FA0126304604B0AF
:104D500070BD00F045FF6060F3E704F1100000F063
:104D60005BFD0028EFD04FF0E0234FF08052C3F8F6
:104D7000042DBFF34F8FBFF36F8FE4E746B14FF0C1
:104D8000500383F31188BFF36F8FBFF34F8FFEE79C
:104D9000FFF7D2FADAE702A800F0C8FD01252AE001
:104DA000002384F8443032E0002384F8453034E0B6
:104DB000FFF7A0FA606800F023FE0646FFF7BCFA92
:104DC0003BE02046FFF773FC00F0D4FB09E02046EF
:104DD000FFF76DFC00F0CEFB2046FFF70EFC00282D
:104DE00042D1FFF787FAA36B002BA6D1019B002BC2
:104DF000C4D0002DCFD0FFF79FFA00F021FBFFF7C2
:104E000079FA94F844305BB2B3F1FF3FC8D094F81C
:104E100045305BB2B3F1FF3FC6D0FFF78DFA01A971
:104E200002A800F08FFD0028D1D12046FFF7E5FB56
:104E30000028C6D02368002BBAD0019904F12400C1
:104E400000F08AFC2046FFF732FC00F093FB0028BC
:104E5000C7D14FF0E0234FF08052C3F8042DBFF3C9
:104E60004F8FBFF36F8FBCE70EB900266EE7FFF7D9
:104E700041FA2046FFF7AAFB0146606800F054FEA5
:104E8000FFF75AFAF1E780B170B50C46054646685F
:104E900000F0A0FD864211D021462846FFF720FFF2
:104EA00080B1EB680133EB600CE04FF0500383F30B
:104EB0001188BFF36F8FBFF34F8FFEE7EB680133AD
:104EC000EB60012070BD00000023072B0CD8074ABF
:104ED00052F833200AB10133F7E7044A42F833109D
:104EE00002EBC30358607047704700BFE01A002010
:104EF00070B504460D461646FFF7FCF994F84430A9
:104F00005BB2B3F1FF3F0DD094F845305BB2B3F123
:104F1000FF3F0BD0FFF710FAA36B5BB12046FFF702
:104F2000C6FB70BD002384F84430EDE7002384F80D
:104F30004530EFE73246294604F1240000F050FCEA
:104F4000ECE70000084B1B681B6823B9074B4FF0C8
:104F5000FF321A607047044B1B68DB68DB685A68D5
:104F6000024B1A60704700BF241B0020D01F002096
:104F70002DE9F04780460D4617469946089EDDF814
:104F800024A00A9C9200A521206B01F0C3FB236B97
:104F900007F18042013A03EB820727F007074FF041
:104FA000000CBCF10F0F0BD815F80C2004EB0C0310
:104FB00083F8342015F80C3013B10CF1010CF0E734
:104FC000002384F84330372E00D93726E662E664A2
:104FD00000252565201DFFF7EAF804F11800FFF70A
:104FE000E6F82461C6F13806A6616462C4F880540C
:104FF00084F884544FF48562294604F1580001F086
:1050000089FB04F55173E36504F56B73236604F2C1
:105010001443636601220023C4E9402343F20E33A4
:10502000A4F808314AF6CD33A4F80A3141F234230A
:10503000A4F80C314EF26D63A4F80E314DF6EC631A
:10504000A4F810310523A4F812310B23A4F814316D
:105050004A4641463846FFF723F92060BAF1000F6F
:1050600001D0CAF80040BDE8F087000038B5002440
:1050700007E004EB840293000E481844FFF78CF815
:105080000134372CF5D90C4D2846FFF785F80B4C29
:105090002046FFF781F80A48FFF77EF80948FFF736
:1050A0007BF80948FFF778F8084B1D60084B1C6037
:1050B00038BD00BF2C1B0020A41F0020B81F0020FB
:1050C000D81F002004200020F01F0020241B0020F7
:1050D000281B002010B50446FFF70CF9224A13687C
:1050E00001331360214B1B685BB1214B1B686BB90B
:1050F0001E4B1B68DA6AE36A9A4207D81B4B1C6096
:1051000004E01A4B1C601368012B29D0194A13685C
:10511000013313606364E06A174B1B68984201D93E
:10512000154B186000EB8000211D144B03EB800031
:10513000FFF740F8FFF700F90D4B1B687BB10B4BF5
:105140001B68DA6AE36A9A4209D24FF0E0234FF013
:105150008052C3F8042DBFF34F8FBFF36F8F10BD84
:10516000FFF784FFD2E700BF8C1F0020201B002028
:10517000EC1F00209C1F0020A01F00202C1B0020E3
:1051800010B50446583001F047FB94F8853463B1FC
:10519000012B11D0022B0ED04FF0500383F3118856
:1051A000BFF36F8FBFF34F8FFEE7206BFFF702FA5D
:1051B0002046FFF7FFF910BD2046FFF7FBF9FAE79D
:1051C0000F4B1B68D3B110B5FFF794F80D4BDB689C
:1051D000DC68201DFFF712F80B4A1368013B1360CF
:1051E000074A1368013B1360FFF7A6F82046FFF754
:1051F000C7FF034B1B68002BE6D110BD704700BFF3
:10520000901F0020042000208C1F002008B5FFF70D
:10521000D7FF074B1B68012BF9D94FF0E0234FF064
:105220008052C3F8042DBFF34F8FBFF36F8FEEE7AB
:105230002C1B002070B504460D46174B1E68174BFB
:1052400018680430FEF7DAFFB4F1FF3F0DD03444A4
:10525000124B1B685C60A64210D9114B18680F4BAB
:1052600019680431FEF7B1FF70BD002DEFD00B4B74
:10527000196804310B48FEF79DFFF5E70A4B1868E3
:10528000064B19680431FEF7A0FF084B1B68A342C8
:10529000EAD9064B1C60E7E718200020201B0020FD
:1052A000281B0020F01F0020241B0020D01F0020FE
:1052B00030B587B00B9C8CB10C9DC5B14FF4916596
:1052C0000495049DB5F5916F1AD04FF0500383F308
:1052D0001188BFF36F8FBFF34F8FFEE74FF050037E
:1052E00083F31188BFF36F8FBFF34F8FFEE74FF04B
:1052F000500383F31188BFF36F8FBFF34F8FFEE727
:105300000C9D2C63022485F88544002403940295A7
:1053100005AC01940A9C0094FFF72AFE0C98FFF755
:10532000D9FE059807B030BD2DE9F04385B007469A
:10533000884614461E469000FFF730F908B38146B0
:105340004FF49160FFF72AF90546B0B1C0F83090EC
:10535000E5B1002385F88534039302950D9B0193F5
:105360000C9B00933346224641463846FFF700FE29
:105370002846FFF7AFFE012005E04846FFF71AF97F
:10538000E6E74FF0FF3005B0BDE8F0834FF0FF30A7
:10539000F9E7000010B588B000240594069407AA28
:1053A00006A905A8FEF7C6FD059B0293069B01937F
:1053B00000942346079A1A491A48FFF779FF1A4BB7
:1053C000186040B100F0A6FC012806D0B0F1FF3F04
:1053D0001DD008B010BD0020F6E74FF0500383F356
:1053E0001188BFF36F8FBFF34F8F104B1B6858337B
:1053F0000F4A13600F4B4FF0FF321A600E4B012221
:105400001A600E4B00221A60FFF70EF8E1E74FF02A
:10541000500383F31188BFF36F8FBFF34F8FFEE705
:10542000DCC500080D520008CC1F0020201B002006
:1054300010000020D01F0020EC1F002018200020AA
:10544000024A136801331360704700BF981F0020A1
:10545000014B1868704700BF18200020F8B53A4B80
:105460001B68002B64D1394B1D6801351D60C5B91F
:10547000374B1B681B6843B14FF0500383F311880F
:10548000BFF36F8FBFF34F8FFEE7314A1168314B87
:10549000186810601960304A136801331360FFF711
:1054A00051FD2E4B1B68AB4238D900272C4B1B6893
:1054B000DB6A03EB83039A002A4B9B58012B3CD9F0
:1054C00001273AE00127224B1B681B6843B3204B9E
:1054D0001B68DB68DC6863689D4226D3261D304666
:1054E000FEF78CFEA36A1BB104F11800FEF786FEDE
:1054F000E36A1D4A1268934201D91B4A136003EB09
:1055000083039A00314617481044FEF753FEE26ABF
:10551000134B1B68DB6A9A42D4D2D4E70027D2E748
:105520000E4B4FF0FF321A60C0E70C4A1360BDE724
:105530000E4A13680133136000270D4B1B6803B13B
:1055400001273846F8BD00BF981F00201820002012
:10555000241B0020281B0020D41F0020D01F002067
:10556000201B00202C1B0020A01F0020941F0020C7
:105570001C20002038B5354B1B6843B94FF0500351
:1055800083F31188BFF36F8FBFF34F8FFEE7FEF7F2
:10559000B1FE2E4B1A68013A1A601B68002B4FD1DE
:1055A0002B4B1B680BB900244BE00024294B1B68D4
:1055B0001BB3284BDB68DC6804F11800FEF71EFE05
:1055C000251D2846FEF71AFEE06A234B1B68984209
:1055D00001D9214B186000EB800029461F4B03EBDB
:1055E0008000FEF7E7FDE26A1D4B1B68DB6A9A420A
:1055F000DCD31C4B01221A60D8E70CB1FFF7A2FCE8
:10560000194B1C6884B9174B1C68D4B14FF0E023C8
:105610004FF08052C3F8042DBFF34F8FBFF36F8F4D
:1056200001240EE0013C07D0FFF718FF0028F9D055
:105630000C4B01221A60F5E70B4B00221A60E2E7DF
:105640000024FEF779FE204638BD00BF981F0020D9
:105650008C1F0020D81F0020A01F00202C1B002022
:10566000201B00201C200020941F002010B5A8B192
:105670000446104B1B6843B14FF0500383F311886D
:10568000BFF36F8FBFF34F8FFEE7FFF7D9FE002107
:105690002046FFF7CFFDFFF76DFF48B94FF0E0233D
:1056A0004FF08052C3F8042DBFF34F8FBFF36F8FBD
:1056B00010BD00BF981F0020214B1B681BB1214B60
:1056C00001221A6070471F4B00221A601E4B1B6894
:1056D00003EB83018A001D498A585AB90BB1013B7B
:1056E000F6E74FF0500383F31188BFF36F8FBFF3DA
:1056F0004F8FFEE703EB830082000A445068406846
:10570000506003EB830C4FEA8C020832114488424C
:105710000FD003EB830291000C4A0A445268D1680F
:105720000B4A116008490B6013685833094A13602B
:105730007047406862469100044A0A445060E8E7B6
:10574000981F00201C200020A01F00202C1B0020E0
:10575000201B00201000002058B110B50C46094A4B
:1057600011681831FEF731FD01212046FFF762FD77
:1057700010BD4FF0500383F31188BFF36F8FBFF359
:105780004F8FFEE7201B002070B110B51446024673
:10579000114B1B688BB94FF0500383F31188BFF393
:1057A0006F8FBFF34F8FFEE74FF0500383F31188E5
:1057B000BFF36F8FBFF34F8FFEE7084B186841F0C0
:1057C00000418161196818311046FEF7F3FC012190
:1057D0002046FFF72FFD10BD981F0020201B002042
:1057E00038B570B10D4614460A4A11681831FEF7F3
:1057F000E1FC0CB14FF0FF3521462846FFF71AFDBA
:1058000038BD4FF0500383F31188BFF36F8FBFF3A0
:105810004F8FFEE7201B002038B5C368DC6824B337
:1058200004F118052846FEF7E9FC184B1B682BBB52
:10583000251D2846FEF7E2FCE06A154B1B689842DE
:1058400001D9134B186000EB80002946114B03EB84
:105850008000FEF7AFFCE26A0F4B1B68DB6A9A42DE
:1058600011D901200D4B186038BD4FF0500383F360
:105870001188BFF36F8FBFF34F8FFEE729460848AB
:10588000FEF798FCE7E70020EEE700BF981F002036
:10589000A01F00202C1B0020201B00201C2000200B
:1058A000D81F002038B51C4B1B6843B94FF050037C
:1058B00083F31188BFF36F8FBFF34F8FFEE741F083
:1058C00000410160C468F4B1FEF798FC251D28462C
:1058D000FEF794FCE06A114B1B68984201D90F4B0C
:1058E000186000EB800029460D4B03EB8000FEF7AB
:1058F00061FCE26A0B4B1B68DB6A9A4202D90A4BD5
:1059000001221A6038BD4FF0500383F31188BFF3B2
:105910006F8FBFF34F8FFEE7981F0020A01F00205E
:105920002C1B0020201B00201C200020034B1B6888
:105930000360034B1B684360704700BFD41F002007
:1059400018200020F8B5C8B10C460546F9B1FEF79D
:10595000D1FC1B4B19686B68C81A2268B2F1FF3F73
:1059600026D0184E36682F68B74201D08B4224D912
:10597000824215D80023236001241AE04FF050031F
:1059800083F31188BFF36F8FBFF34F8FFEE74FF0A4
:10599000500383F31188BFF36F8FBFF34F8FFEE780
:1059A0005B1A134423602846FFF7C0FF002400E081
:1059B0000024FEF7C1FC2046F8BD0124F9E700BF32
:1059C00018200020D41F0020014B01221A607047CC
:1059D0001C200020014B1868704700BF201B0020CE
:1059E000054B1B6833B1054B1B680BB1002070479A
:1059F0000220704701207047EC1F0020981F0020F4
:105A000000283FD038B50446C36A204A1268D26ADB
:105A100093422FD28269002A05DB1C4A1268D26A9F
:105A2000C2F138028261616903EB8303184A02EB19
:105A30008303994205D0154B1B68DB6AE3620120A2
:105A400038BD251D2846FEF7D9FB104B1B68D86AC8
:105A5000E062104B1B68984209D800EB8000294691
:105A60000B4B03EB8000FEF7A5FB0120E8E7094B99
:105A70001860F2E7C26C054B1B68DB6A9A4203D3DD
:105A80000020DDE7002070470120D9E7201B00201F
:105A90002C1B0020A01F002000283BD038B5044656
:105AA0001E4B1B68834208D04FF0500383F31188CC
:105AB000BFF36F8FBFF34F8FFEE7036D43B94FF016
:105AC000500383F31188BFF36F8FBFF34F8FFEE74F
:105AD000013B0365C16AC26C91421DD00BB100202D
:105AE00038BD051D2846FEF789FBE06CE062C0F179
:105AF0003803A3610A4B1B68984201D9084B186010
